10002840RO B  E R     TDE NIRO        1943229000000000000000
10004949LE  O  N A RD ODI CAPRIO      1974315000000000000000
10006978M IC  HA E    LJORDAN         1963048000000000000000
10008949M EH M  E     TAYDIN          1974261000000000000000
10009840LI ON  E      LMESSI          1987175000000000000000
